:100000000C9463000C948B000C948B000C948B006C
:100010000C948B000C948B000C948B000C948B0034
:100020000C948B000C948B000C948B000C948B0024
:100030000C948B000C948B000C948B000C948B0014
:100040000C94C1030C948B000C9431040C940B049D
:100050000C948B000C948B000C948B000C948B00F4
:100060000C948B000C948B000000000023002600F1
:10007000290000000000240027002A0000000000E2
:10008000250028002B0004040404040404040202D4
:100090000202020203030303030301020408102007
:1000A0004080010204081020010204081020000012
:1000B0000008000201000003040700000000000027
:1000C00000006304880611241FBECFEFD8E0DEBF16
:1000D000CDBF22E0AAE3B1E001C01D92A330B20778
:1000E000E1F711E0A0E0B1E0ECEAF1E102C0059037
:1000F0000D92AA33B107D9F710E0C2E6D0E004C0F0
:100100002197FE010E94C806C136D107C9F70E9497
:1001100003050C94C9080C940000833081F028F486
:10012000813099F08230A9F008958730A9F08830A5
:10013000C9F08430B1F4809180008F7D03C080913C
:1001400080008F7780938000089584B58F7784BD79
:10015000089584B58F7DFBCF8091B0008F77809319
:10016000B00008958091B0008F7DF9CF1F93CF9399
:10017000DF93282F30E0F901E255FF4F8491F90118
:10018000E656FF4FD491F901EA57FF4FC491CC23B3
:10019000A9F0162F81110E948D00EC2FF0E0EE0FD8
:1001A000FF1FE458FF4FA591B4918FB7F894EC91DD
:1001B000111108C0D095DE23DC938FBFDF91CF9162
:1001C0001F910895DE2BF8CFCF93DF9390E0FC01D1
:1001D000E656FF4F24918A579F4FFC018491882354
:1001E000D1F090E0880F991FFC01EE58FF4FA591C8
:1001F000B491FC01E458FF4FC591D49161110EC038
:100200009FB7F8948C91E22FE0958E238C932881F0
:10021000E223E8839FBFDF91CF9108958FB7F894D1
:10022000EC91E22BEC938FBFF6CF3FB7F89480911F
:10023000400190914101A0914201B091430126B546
:10024000A89B05C02F3F19F00196A11DB11D3FBF0E
:10025000BA2FA92F982F8827BC01CD01620F711DDD
:10026000811D911D42E0660F771F881F991F4A95D7
:10027000D1F70895AF92BF92CF92DF92EF92FF92A3
:100280000F931F93CF93DF936C017B018B01040FBE
:10029000151FEB015E01AE18BF08C017D10759F05A
:1002A0006991D601ED91FC910190F081E02DC6019C
:1002B0000995892B79F7C501DF91CF911F910F9196
:1002C000FF90EF90DF90CF90BF90AF900895FC012A
:1002D000538D448D252F30E0842F90E0821B930BAB
:1002E000541710F0CF96089501970895FC01918D51
:1002F000828D981761F0A28DAE0FBF2FB11D5D9654
:100300008C91928D9F5F9F73928F90E008958FEFF5
:100310009FEF0895FC01918D828D981731F0828DA9
:10032000E80FF11D858D90E008958FEF9FEF089500
:10033000FC01918D228D892F90E0805C9F4F821B64
:1003400091098F739927089584E491E00E949801A0
:1003500021E0892B09F420E0822F089580E090E0CD
:10036000892B29F00E94A40181110C9400000895AA
:10037000FC01A48DA80FB92FB11DA35ABF4F2C911A
:10038000848D90E001968F739927848FA689B78911
:100390002C93A089B1898C91837080648C93938D08
:1003A000848D981306C00288F389E02D80818F7DAB
:1003B00080830895EF92FF920F931F93CF93DF9363
:1003C000EC0181E0888F9B8D8C8D98131AC0E88991
:1003D000F989808185FF15C09FB7F894EE89FF8960
:1003E0006083E889F98980818370806480839FBFFE
:1003F00081E090E0DF91CF911F910F91FF90EF90FE
:100400000895F62E0B8D10E00F5F1F4F0F7311270D
:10041000E02E8C8D8E110CC00FB607FCFACFE88948
:10042000F989808185FFF5CFCE010E94B801F1CF17
:10043000EB8DEC0FFD2FF11DE35AFF4FF0829FB7BC
:10044000F8940B8FEA89FB8980818062CFCFCF93AC
:10045000DF93EC01888D8823B9F0AA89BB89E889EC
:10046000F9898C9185FD03C0808186FD0DC00FB692
:1004700007FCF7CF8C9185FFF2CF808185FFEDCF10
:10048000CE010E94B801E9CFDF91CF910895089580
:1004900090E080E00895CF93DF93EC0160E08E81DF
:1004A0000E94B60061E08E810E94B60060E08E81FD
:1004B0000E94B6008BE891E00197F1F7DF91CF91B0
:1004C0000895CF92DF92EF92FF920F931F93CF93F5
:1004D000DF936C017C0187E0E80EF11CD0E0C0E006
:1004E000062F10E0B8010C2E02C0759567950A948E
:1004F000E2F76170F70181917F010E94B6002196B9
:10050000C430D10579F7C601DF91CF911F910F91CA
:10051000FF90EF90DF90CF900C944B02CF92DF9240
:10052000EF92FF920F931F93CF93DF93EC01F62E80
:10053000642F8C810E94B6008D818F3F19F060E09E
:100540000E94B6000F2D10E08F8584FF25C06E013C
:1005500087E0C80ED11CF12CE12CB8010E2C02C092
:10056000759567950A94E2F76170F60181916F01C4
:100570000E94B600FFEFEF1AFF0A88E0E816F104C8
:1005800061F7CE01DF91CF911F910F91FF90EF9016
:10059000DF90CF900C944B02B80184E0759567957D
:1005A0008A95E1F7CE010E9461026F2DCE01DF91A5
:1005B000CF911F910F91FF90EF90DF90CF900C940F
:1005C000610240E0682F87EE91E00C948E02CF9399
:1005D000DF93823029F49091F60198609093F601B0
:1005E0008093FA011092FB0180E48093FC0180E18A
:1005F0008093FD0180E58093FE0161E08091EB0135
:100600000E94E4008091EC018F3F19F061E00E94AC
:10061000E40061E08091ED010E94E400C7EED1E0CA
:100620009E01275E31408091F60184FD0BC084E07D
:1006300090E021962817390744F461E08E810E94EA
:10064000E400EECF88E090E0F4CF8BE39DE00197EB
:10065000F1F760E08091EB010E94B60060E08091CC
:10066000ED010E94B6008091EC018F3F19F060E02F
:100670000E94B6008091F60184FD39C063E087EEE8
:1006800091E00E946102CBE4D6E4CE010197F1F73C
:1006900063E087EE91E00E9461022197F1F763E049
:1006A00087EE91E00E94610283E592E00197F1F705
:1006B00062E087EE91E00E9461028091F601806223
:1006C0000E94E10284E08093F7018CE00E94E10245
:1006D00081E00E94E1028BE39FE10197F1F782E064
:1006E0008093F80186E0DF91CF910C94E102806263
:1006F0000E94E1028BE496E40197F1F78091F60104
:1007000080620E94E10283E592E00197F1F7809117
:10071000F60180620E94E102D0CF41E00E948E0289
:1007200081E090E00895CF93DF93EC018091E101A7
:100730009091E201009759F02091E3013091E4019A
:100740002C173D0720F081E0DF91CF910895BE0185
:100750006F5F7F4F0E94F307009789F09093E2014B
:100760008093E101D093E401C093E3012091E5017E
:100770003091E601232B39F7FC011082E4CF80E0B1
:10078000E3CF1F920F920FB60F9211242F933F9336
:100790008F939F93AF93BF9380913C0190913D01C4
:1007A000A0913E01B0913F0130913B0123E0230F26
:1007B0002D3758F50196A11DB11D20933B01809363
:1007C0003C0190933D01A0933E01B0933F01809185
:1007D000400190914101A0914201B09143010196E5
:1007E000A11DB11D8093400190934101A09342014E
:1007F000B0934301BF91AF919F918F913F912F9102
:100800000F900FBE0F901F90189526E8230F0296A9
:10081000A11DB11DD2CF1F920F920FB60F921124BE
:100820002F933F934F935F936F937F938F939F93F8
:10083000AF93BF93EF93FF9384E491E00E94B801DC
:10084000FF91EF91BF91AF919F918F917F916F91A8
:100850005F914F913F912F910F900FBE0F901F907E
:1008600018951F920F920FB60F9211242F938F930A
:100870009F93EF93FF93E0915401F0915501808194
:10088000E0915A01F0915B0182FD1BC09081809143
:100890005D018F5F8F7320915E01821741F0E091BF
:1008A0005D01F0E0EC5BFE4F958F80935D01FF9161
:1008B000EF919F918F912F910F900FBE0F901F90EE
:1008C00018958081F4CF109247011092460188EE6E
:1008D00093E0A0E0B0E08093480190934901A09399
:1008E0004A01B0934B018AE091E0909345018093D7
:1008F000440185EC90E0909351018093500184EC89
:1009000090E0909353018093520180EC90E090939B
:1009100055018093540181EC90E0909357018093AE
:10092000560182EC90E0909359018093580186EC37
:1009300090E090935B0180935A0110925D011092B8
:100940005E0110925F01109260011092EA01109214
:10095000E9018CE191E09093E8018093E7018CE05C
:100960008093EB018FEF8093EC018BE08093ED019E
:1009700085E08093EE0184E08093EF0183E0809333
:10098000F00182E08093F1011092F2011092F301E4
:100990001092F4011092F5011092F60181E00E948C
:1009A000E7021092E2011092E1011092E40110922C
:1009B000E3011092E6011092E50190E080E00E94D0
:1009C00093032091E1013091E201811113C02115BF
:1009D000310519F0C9010E946A071092E2011092D4
:1009E000E1011092E6011092E5011092E4011092EB
:1009F000E30108951092E6011092E50169E371E0C8
:100A0000C9010C94C208CF93DF9300D0CDB7DEB7F5
:100A1000789484B5826084BD84B5816084BD85B5D9
:100A2000826085BD85B5816085BD80916E008160E5
:100A300080936E001092810080918100826080938B
:100A4000810080918100816080938100809180008D
:100A50008160809380008091B10084608093B100B8
:100A60008091B00081608093B00080917A008460B2
:100A700080937A0080917A00826080937A008091DE
:100A80007A00816080937A0080917A0080688093F8
:100A90007A001092C10082E00E94E70261E08DE0DE
:100AA0000E94E40060E086E00E94E40060E08DE0E7
:100AB0000E94B600E0915401F091550182E08083DC
:100AC000E0915001F09151011082E0915201F091BA
:100AD00053018FEC808310925C01E0915801F091FA
:100AE000590186E08083E0915601F09157018081A1
:100AF00080618083E0915601F09157018081886088
:100B00008083E0915601F091570180818068808355
:100B1000E0915601F091570180818F7D808324EB15
:100B2000222E20E0322E00EA10E03CE8E32E30E0F6
:100B3000F32E40E0C42E40E0D42EF1018491F80160
:100B4000B490F701A490AA20A1F081110E948D0019
:100B5000EA2DF0E0EE0FFF1FE859FF4FA591B49189
:100B60008C91B82231F080913A01F1E08F27809387
:100B70003A0184E491E00E949801892B09F44AC06B
:100B80000E9415014B015C018AE0482E512C612C1A
:100B9000712C0E941501681979098A099B09683E20
:100BA000734081059105A8F321E0421A51086108BC
:100BB000710888EE880E83E0981EA11CB11C4114B8
:100BC00051046104710429F784E491E00E947601E4
:100BD00089831A82A090E501B090E601FFEFAF1A79
:100BE000BF0AC5010E949303882319F22091E101F5
:100BF0003091E2018091E5019091E601BE016F5FC5
:100C00007F4F820F931F0E94C208B092E601A0920C
:100C1000E501AFCF8091E5019091E601892B59F173
:100C2000A090E101B090E20164E271E0C5010E9490
:100C3000B908892B09F048C021E020933A0190E0DF
:100C400080E00E9493032091E1013091E201811143
:100C500046C02115310519F0C9010E946A0710929A
:100C6000E2011092E1011092E6011092E50110926A
:100C7000E4011092E301B0903A016B2D8DE00E94E7
:100C8000B6008091FA01E1E0BB2099F18111E0E02A
:100C9000E195F0E0E951FE4F848980680E94E1020D
:100CA00046E050E06BE271E087EE91E00E943A018D
:100CB000C114D10409F441CF0E94A401882309F48E
:100CC0003CCF0E94000039CF67E271E0C5010E946D
:100CD000B908892B09F0B3CF10923A01B0CF109226
:100CE000E6011092E50169E371E0C9010E94C208C2
:100CF000C2CF8111E0E0E195F0E0E951FE4F848937
:100D000080680E94E10247E050E062E371E0CCCFEE
:100D10008091E1019091E201009711F00C946A0733
:100D200008952F923F924F925F926F927F928F928F
:100D30009F92AF92BF92CF92DF92EF92FF920F936A
:100D40001F93CF93DF93CDB7DEB7CA1BDB0B0FB674
:100D5000F894DEBF0FBECDBF09942A883988488831
:100D60005F846E847D848C849B84AA84B984C884C7
:100D7000DF80EE80FD800C811B81AA81B981CE0FBE
:100D8000D11D0FB6F894DEBF0FBECDBFED010895A3
:100D9000EE0FFF1F0590F491E02D09940F931F9320
:100DA000CF93DF938230910510F482E090E0E091E0
:100DB0000102F091020230E020E0B0E0A0E03097C4
:100DC00099F42115310509F44AC0281B390B243048
:100DD0003105D8F58A819B816115710589F1FB0187
:100DE00093838283FE0111C040815181028113816E
:100DF00048175907E0F04817590799F4109761F020
:100E000012960C93129713961C933296CF01DF9192
:100E1000CF911F910F910895009301021093020248
:100E2000F4CF2115310551F04217530738F0A901CD
:100E3000DB019A01BD01DF01F801C1CFEF01F9CF5C
:100E40009093020280930102CDCFFE01E20FF31FC7
:100E5000819391932250310939832883D7CF2091F0
:100E6000FF0130910002232B41F4209102013091C7
:100E70000301309300022093FF0120910001309183
:100E800001012115310541F42DB73EB74091040110
:100E900050910501241B350BE091FF01F0910002F8
:100EA000E217F307A0F42E1B3F0B2817390778F041
:100EB000AC014E5F5F4F2417350748F04E0F5F1FA0
:100EC000509300024093FF01819391939FCFF0E0F4
:100ED000E0E09CCFCF93DF930097E9F0FC013297DD
:100EE00013821282A0910102B0910202ED0130E062
:100EF00020E01097A1F420813181820F931F20916F
:100F0000FF01309100022817390709F061C0F09302
:100F10000002E093FF01DF91CF910895EA01CE171F
:100F2000DF07E8F54A815B819E0141155105B1F764
:100F3000E901FB83EA8349915991C40FD51FEC174E
:100F4000FD0761F4808191810296840F951FE9016C
:100F500099838883828193819B838A83F0E0E0E098
:100F600012968D919C9113970097B9F52D913C9114
:100F70001197CD010296820F931F2091FF013091AE
:100F800000022817390739F6309751F510920202FE
:100F900010920102B0930002A093FF01BCCFD38353
:100FA000C28340815181840F951FC817D90761F40E
:100FB0004E5F5F4F88819981480F591F518340834D
:100FC0008A819B81938382832115310509F0B0CFFB
:100FD000F0930202E09301029ECFFD01DC01C0CF3D
:100FE00013821282D7CFB0E0A0E0E9EFF7E00C94D3
:100FF00093068C01009751F4CB010E94CE068C0120
:10100000C801CDB7DEB7E0E10C94AF06FC01E60FF6
:10101000F71F9C0122503109E217F30708F49DC025
:10102000D901CD91DC911197C617D70798F0C5303B
:10103000D10530F3CE0104978617970708F3C61B36
:10104000D70B2297C193D1936D937C93CF010E94CC
:101050006A07D6CF5B01AC1ABD0A4C018C0E9D1EEF
:10106000A0910102B0910202512C412CF12CE12CF3
:10107000109731F58091FF01909100028815990534
:1010800009F05CC04616570608F058C08091000170
:1010900090910101009741F48DB79EB740910401F2
:1010A00050910501841B950BE817F90708F055C00E
:1010B000F0930002E093FF01F90171836083A0CFF8
:1010C0008D919C91119712966C90129713967C902B
:1010D0001397A815B90559F56C0142E0C40ED11C4F
:1010E000CA14DB0420F1AC014A195B09DA0112963B
:1010F000159780F06282738251834083D9016D938A
:101100007C93E114F10471F0D7011396FC93EE93F4
:10111000129776CF22968C0F9D1FF90191838083C1
:10112000F301EFCFF0930202E093010269CF48167A
:10113000590608F42C017D01D3019ACFCB010E94FE
:10114000CE067C01009749F0AE01B8010E94B008BC
:10115000C8010E946A07870153CF10E000E050CF1A
:10116000FB01DC0102C001900D9241505040D8F7C4
:101170000895FB01DC018D91019080190110D9F3D4
:10118000990B0895FB01DC0101900D920020E1F71D
:10119000089510E0C2E6D0E004C0FE010E94C80637
:0C11A0002196C336D107C9F7F894FFCFA1
:1011AC0000000302800000000000DA013A01670130
:1011BC002702980176018A01000000008D033A0194
:1011CC00480247026F6E006F6666004C4544204F24
:0A11DC004E004C4544204F464600EB
:00000001FF
